{
  "_format": "hh-sol-artifact-1",
  "contractName": "CommodityBiddingEngine",
  "sourceName": "contracts/CommodityBiddingEngine.sol",
  "abi": [
    {
      "anonymous": false,
      "inputs": [
        {
          "indexed": false,
          "internalType": "string",
          "name": "bidId",
          "type": "string"
        },
        {
          "indexed": false,
          "internalType": "string",
          "name": "bidHash",
          "type": "string"
        },
        {
          "indexed": true,
          "internalType": "address",
          "name": "recorder",
          "type": "address"
        }
      ],
      "name": "BidRecorded",
      "type": "event"
    },
    {
      "inputs": [
        {
          "internalType": "string",
          "name": "bidId",
          "type": "string"
        },
        {
          "internalType": "string",
          "name": "bidHash",
          "type": "string"
        }
      ],
      "name": "recordBid",
      "outputs": [],
      "stateMutability": "nonpayable",
      "type": "function"
    }
  ],
  "bytecode": "0x608060405234801561001057600080fd5b5061035e806100206000396000f3fe608060405234801561001057600080fd5b506004361061002b5760003560e01c8063e20e13c114610030575b600080fd5b61004a600480360381019061004591906101fa565b61004c565b005b3373ffffffffffffffffffffffffffffffffffffffff167fccbeecdaff173c954683459df6f6f73d6a9bea2f2e8e075bbe533b238719a8ab83836040516100949291906102f1565b60405180910390a25050565b6000604051905090565b600080fd5b600080fd5b600080fd5b600080fd5b6000601f19601f8301169050919050565b7f4e487b7100000000000000000000000000000000000000000000000000000000600052604160045260246000fd5b610107826100be565b810181811067ffffffffffffffff82111715610126576101256100cf565b5b80604052505050565b60006101396100a0565b905061014582826100fe565b919050565b600067ffffffffffffffff821115610165576101646100cf565b5b61016e826100be565b9050602081019050919050565b82818337600083830152505050565b600061019d6101988461014a565b61012f565b9050828152602081018484840111156101b9576101b86100b9565b5b6101c484828561017b565b509392505050565b600082601f8301126101e1576101e06100b4565b5b81356101f184826020860161018a565b91505092915050565b60008060408385031215610211576102106100aa565b5b600083013567ffffffffffffffff81111561022f5761022e6100af565b5b61023b858286016101cc565b925050602083013567ffffffffffffffff81111561025c5761025b6100af565b5b610268858286016101cc565b9150509250929050565b600081519050919050565b600082825260208201905092915050565b60005b838110156102ac578082015181840152602081019050610291565b60008484015250505050565b60006102c382610272565b6102cd818561027d565b93506102dd81856020860161028e565b6102e6816100be565b840191505092915050565b6000604082019050818103600083015261030b81856102b8565b9050818103602083015261031f81846102b8565b9050939250505056fea264697066735822122016f248c1830b5c30b96ce0bf2e70792beee9d8363e1011d56d2224b9a2d882cd64736f6c63430008130033",
  "linkReferences": {},
  "deployedLinkReferences": {}
}